{
  "_format": "hh-sol-artifact-1",
  "contractName": "FileSystem",
  "sourceName": "contracts/FileSystem.sol",
  "abi": [
    {
      "inputs": [],
      "stateMutability": "nonpayable",
      "type": "constructor"
    },
    {
      "inputs": [
        {
          "internalType": "string",
          "name": "fileName",
          "type": "string"
        }
      ],
      "name": "getFile",
      "outputs": [
        {
          "internalType": "string",
          "name": "",
          "type": "string"
        }
      ],
      "stateMutability": "view",
      "type": "function"
    },
    {
      "inputs": [
        {
          "internalType": "string",
          "name": "fileName",
          "type": "string"
        },
        {
          "internalType": "string",
          "name": "fileContent",
          "type": "string"
        }
      ],
      "name": "storeFile",
      "outputs": [],
      "stateMutability": "nonpayable",
      "type": "function"
    }
  ],
  "bytecode": "0x60806040523480156200001157600080fd5b506040518060400160405280601381526020017f436f6e74656e75746f2066696c6520746573740000000000000000000000000081525060006040516200005890620000d6565b9081526020016040518091039020908162000074919062000367565b506200044e565b600081905092915050565b7f46696c6554657374000000000000000000000000000000000000000000000000600082015250565b6000620000be6008836200007b565b9150620000cb8262000086565b600882019050919050565b6000620000e382620000af565b9150819050919050565b600081519050919050565b7f4e487b7100000000000000000000000000000000000000000000000000000000600052604160045260246000fd5b7f4e487b7100000000000000000000000000000000000000000000000000000000600052602260045260246000fd5b600060028204905060018216806200016f57607f821691505b60208210810362000185576200018462000127565b5b50919050565b60008190508160005260206000209050919050565b60006020601f8301049050919050565b600082821b905092915050565b600060088302620001ef7fffffffffffffffffffffffffffffffffffffffffffffffffffffffffffffffff82620001b0565b620001fb8683620001b0565b95508019841693508086168417925050509392505050565b6000819050919050565b6000819050919050565b600062000248620002426200023c8462000213565b6200021d565b62000213565b9050919050565b6000819050919050565b620002648362000227565b6200027c62000273826200024f565b848454620001bd565b825550505050565b600090565b6200029362000284565b620002a081848462000259565b505050565b5b81811015620002c857620002bc60008262000289565b600181019050620002a6565b5050565b601f8211156200031757620002e1816200018b565b620002ec84620001a0565b81016020851015620002fc578190505b620003146200030b85620001a0565b830182620002a5565b50505b505050565b600082821c905092915050565b60006200033c600019846008026200031c565b1980831691505092915050565b600062000357838362000329565b9150826002028217905092915050565b6200037282620000ed565b67ffffffffffffffff8111156200038e576200038d620000f8565b5b6200039a825462000156565b620003a7828285620002cc565b600060209050601f831160018114620003df5760008415620003ca578287015190505b620003d6858262000349565b86555062000446565b601f198416620003ef866200018b565b60005b828110156200041957848901518255600182019150602085019450602081019050620003f2565b8683101562000439578489015162000435601f89168262000329565b8355505b6001600288020188555050505b505050505050565b610794806200045e6000396000f3fe608060405234801561001057600080fd5b50600436106100365760003560e01c806320de10701461003b578063e0876aa814610057575b600080fd5b610055600480360381019061005091906102c1565b610087565b005b610071600480360381019061006c9190610339565b6100b7565b60405161007e9190610401565b60405180910390f35b80600083604051610098919061045f565b908152602001604051809103902090816100b2919061068c565b505050565b60606000826040516100c9919061045f565b908152602001604051809103902080546100e2906104a5565b80601f016020809104026020016040519081016040528092919081815260200182805461010e906104a5565b801561015b5780601f106101305761010080835404028352916020019161015b565b820191906000526020600020905b81548152906001019060200180831161013e57829003601f168201915b50505050509050919050565b6000604051905090565b600080fd5b600080fd5b600080fd5b600080fd5b6000601f19601f8301169050919050565b7f4e487b7100000000000000000000000000000000000000000000000000000000600052604160045260246000fd5b6101ce82610185565b810181811067ffffffffffffffff821117156101ed576101ec610196565b5b80604052505050565b6000610200610167565b905061020c82826101c5565b919050565b600067ffffffffffffffff82111561022c5761022b610196565b5b61023582610185565b9050602081019050919050565b82818337600083830152505050565b600061026461025f84610211565b6101f6565b9050828152602081018484840111156102805761027f610180565b5b61028b848285610242565b509392505050565b600082601f8301126102a8576102a761017b565b5b81356102b8848260208601610251565b91505092915050565b600080604083850312156102d8576102d7610171565b5b600083013567ffffffffffffffff8111156102f6576102f5610176565b5b61030285828601610293565b925050602083013567ffffffffffffffff81111561032357610322610176565b5b61032f85828601610293565b9150509250929050565b60006020828403121561034f5761034e610171565b5b600082013567ffffffffffffffff81111561036d5761036c610176565b5b61037984828501610293565b91505092915050565b600081519050919050565b600082825260208201905092915050565b60005b838110156103bc5780820151818401526020810190506103a1565b60008484015250505050565b60006103d382610382565b6103dd818561038d565b93506103ed81856020860161039e565b6103f681610185565b840191505092915050565b6000602082019050818103600083015261041b81846103c8565b905092915050565b600081905092915050565b600061043982610382565b6104438185610423565b935061045381856020860161039e565b80840191505092915050565b600061046b828461042e565b915081905092915050565b7f4e487b7100000000000000000000000000000000000000000000000000000000600052602260045260246000fd5b600060028204905060018216806104bd57607f821691505b6020821081036104d0576104cf610476565b5b50919050565b60008190508160005260206000209050919050565b60006020601f8301049050919050565b600082821b905092915050565b6000600883026105387fffffffffffffffffffffffffffffffffffffffffffffffffffffffffffffffff826104fb565b61054286836104fb565b95508019841693508086168417925050509392505050565b6000819050919050565b6000819050919050565b600061058961058461057f8461055a565b610564565b61055a565b9050919050565b6000819050919050565b6105a38361056e565b6105b76105af82610590565b848454610508565b825550505050565b600090565b6105cc6105bf565b6105d781848461059a565b505050565b5b818110156105fb576105f06000826105c4565b6001810190506105dd565b5050565b601f82111561064057610611816104d6565b61061a846104eb565b81016020851015610629578190505b61063d610635856104eb565b8301826105dc565b50505b505050565b600082821c905092915050565b600061066360001984600802610645565b1980831691505092915050565b600061067c8383610652565b9150826002028217905092915050565b61069582610382565b67ffffffffffffffff8111156106ae576106ad610196565b5b6106b882546104a5565b6106c38282856105ff565b600060209050601f8311600181146106f657600084156106e4578287015190505b6106ee8582610670565b865550610756565b601f198416610704866104d6565b60005b8281101561072c57848901518255600182019150602085019450602081019050610707565b868310156107495784890151610745601f891682610652565b8355505b6001600288020188555050505b50505050505056fea2646970667358221220f81217dde2dadd95a11e25335c398f2e5ee4d81fa0964b5b1e3b8df3e89aa1f164736f6c63430008180033",
  "linkReferences": {},
  "deployedLinkReferences": {}
}