{
  "_format": "hh-sol-artifact-1",
  "contractName": "FileStorage",
  "sourceName": "contracts/FileStorage.sol",
  "abi": [
    {
      "anonymous": false,
      "inputs": [
        {
          "indexed": false,
          "internalType": "uint256",
          "name": "fileId",
          "type": "uint256"
        },
        {
          "indexed": false,
          "internalType": "string",
          "name": "name",
          "type": "string"
        },
        {
          "indexed": false,
          "internalType": "address",
          "name": "owner",
          "type": "address"
        }
      ],
      "name": "FileUploaded",
      "type": "event"
    },
    {
      "inputs": [],
      "name": "fileCount",
      "outputs": [
        {
          "internalType": "uint256",
          "name": "",
          "type": "uint256"
        }
      ],
      "stateMutability": "view",
      "type": "function"
    },
    {
      "inputs": [
        {
          "internalType": "uint256",
          "name": "",
          "type": "uint256"
        }
      ],
      "name": "files",
      "outputs": [
        {
          "internalType": "string",
          "name": "name",
          "type": "string"
        },
        {
          "internalType": "string",
          "name": "content",
          "type": "string"
        },
        {
          "internalType": "address",
          "name": "owner",
          "type": "address"
        }
      ],
      "stateMutability": "view",
      "type": "function"
    },
    {
      "inputs": [
        {
          "internalType": "uint256",
          "name": "fileId",
          "type": "uint256"
        }
      ],
      "name": "getFile",
      "outputs": [
        {
          "internalType": "string",
          "name": "",
          "type": "string"
        },
        {
          "internalType": "string",
          "name": "",
          "type": "string"
        },
        {
          "internalType": "address",
          "name": "",
          "type": "address"
        }
      ],
      "stateMutability": "view",
      "type": "function"
    },
    {
      "inputs": [
        {
          "internalType": "string",
          "name": "name",
          "type": "string"
        },
        {
          "internalType": "string",
          "name": "content",
          "type": "string"
        }
      ],
      "name": "uploadFile",
      "outputs": [],
      "stateMutability": "nonpayable",
      "type": "function"
    }
  ],
  "bytecode": "0x608060405234801561001057600080fd5b50610c4c806100206000396000f3fe608060405234801561001057600080fd5b506004361061004c5760003560e01c80632bfda313146100515780634395351914610083578063996d50bf146100a1578063f4c714b4146100bd575b600080fd5b61006b60048036038101906100669190610569565b6100ef565b60405161007a93929190610667565b60405180910390f35b61008b6102ab565b60405161009891906106bb565b60405180910390f35b6100bb60048036038101906100b6919061080b565b6102b1565b005b6100d760048036038101906100d29190610569565b6103c5565b6040516100e693929190610667565b60405180910390f35b606080600080600080868152602001908152602001600020604051806060016040529081600082018054610122906108b2565b80601f016020809104026020016040519081016040528092919081815260200182805461014e906108b2565b801561019b5780601f106101705761010080835404028352916020019161019b565b820191906000526020600020905b81548152906001019060200180831161017e57829003601f168201915b505050505081526020016001820180546101b4906108b2565b80601f01602080910402602001604051908101604052809291908181526020018280546101e0906108b2565b801561022d5780601f106102025761010080835404028352916020019161022d565b820191906000526020600020905b81548152906001019060200180831161021057829003601f168201915b505050505081526020016002820160009054906101000a900473ffffffffffffffffffffffffffffffffffffffff1673ffffffffffffffffffffffffffffffffffffffff1673ffffffffffffffffffffffffffffffffffffffff16815250509050806000015181602001518260400151935093509350509193909250565b60015481565b600160008154809291906102c490610912565b919050555060405180606001604052808381526020018281526020013373ffffffffffffffffffffffffffffffffffffffff16815250600080600154815260200190815260200160002060008201518160000190816103239190610b06565b5060208201518160010190816103399190610b06565b5060408201518160020160006101000a81548173ffffffffffffffffffffffffffffffffffffffff021916908373ffffffffffffffffffffffffffffffffffffffff1602179055509050507f6b91b014a57030f2c2db5fca6b08916e721a712f2510c3069caef5f5a6d3360460015483336040516103b993929190610bd8565b60405180910390a15050565b60006020528060005260406000206000915090508060000180546103e8906108b2565b80601f0160208091040260200160405190810160405280929190818152602001828054610414906108b2565b80156104615780601f1061043657610100808354040283529160200191610461565b820191906000526020600020905b81548152906001019060200180831161044457829003601f168201915b505050505090806001018054610476906108b2565b80601f01602080910402602001604051908101604052809291908181526020018280546104a2906108b2565b80156104ef5780601f106104c4576101008083540402835291602001916104ef565b820191906000526020600020905b8154815290600101906020018083116104d257829003601f168201915b5050505050908060020160009054906101000a900473ffffffffffffffffffffffffffffffffffffffff16905083565b6000604051905090565b600080fd5b600080fd5b6000819050919050565b61054681610533565b811461055157600080fd5b50565b6000813590506105638161053d565b92915050565b60006020828403121561057f5761057e610529565b5b600061058d84828501610554565b91505092915050565b600081519050919050565b600082825260208201905092915050565b60005b838110156105d05780820151818401526020810190506105b5565b60008484015250505050565b6000601f19601f8301169050919050565b60006105f882610596565b61060281856105a1565b93506106128185602086016105b2565b61061b816105dc565b840191505092915050565b600073ffffffffffffffffffffffffffffffffffffffff82169050919050565b600061065182610626565b9050919050565b61066181610646565b82525050565b6000606082019050818103600083015261068181866105ed565b9050818103602083015261069581856105ed565b90506106a46040830184610658565b949350505050565b6106b581610533565b82525050565b60006020820190506106d060008301846106ac565b92915050565b600080fd5b600080fd5b7f4e487b7100000000000000000000000000000000000000000000000000000000600052604160045260246000fd5b610718826105dc565b810181811067ffffffffffffffff82111715610737576107366106e0565b5b80604052505050565b600061074a61051f565b9050610756828261070f565b919050565b600067ffffffffffffffff821115610776576107756106e0565b5b61077f826105dc565b9050602081019050919050565b82818337600083830152505050565b60006107ae6107a98461075b565b610740565b9050828152602081018484840111156107ca576107c96106db565b5b6107d584828561078c565b509392505050565b600082601f8301126107f2576107f16106d6565b5b813561080284826020860161079b565b91505092915050565b6000806040838503121561082257610821610529565b5b600083013567ffffffffffffffff8111156108405761083f61052e565b5b61084c858286016107dd565b925050602083013567ffffffffffffffff81111561086d5761086c61052e565b5b610879858286016107dd565b9150509250929050565b7f4e487b7100000000000000000000000000000000000000000000000000000000600052602260045260246000fd5b600060028204905060018216806108ca57607f821691505b6020821081036108dd576108dc610883565b5b50919050565b7f4e487b7100000000000000000000000000000000000000000000000000000000600052601160045260246000fd5b600061091d82610533565b91507fffffffffffffffffffffffffffffffffffffffffffffffffffffffffffffffff820361094f5761094e6108e3565b5b600182019050919050565b60008190508160005260206000209050919050565b60006020601f8301049050919050565b600082821b905092915050565b6000600883026109bc7fffffffffffffffffffffffffffffffffffffffffffffffffffffffffffffffff8261097f565b6109c6868361097f565b95508019841693508086168417925050509392505050565b6000819050919050565b6000610a036109fe6109f984610533565b6109de565b610533565b9050919050565b6000819050919050565b610a1d836109e8565b610a31610a2982610a0a565b84845461098c565b825550505050565b600090565b610a46610a39565b610a51818484610a14565b505050565b5b81811015610a7557610a6a600082610a3e565b600181019050610a57565b5050565b601f821115610aba57610a8b8161095a565b610a948461096f565b81016020851015610aa3578190505b610ab7610aaf8561096f565b830182610a56565b50505b505050565b600082821c905092915050565b6000610add60001984600802610abf565b1980831691505092915050565b6000610af68383610acc565b9150826002028217905092915050565b610b0f82610596565b67ffffffffffffffff811115610b2857610b276106e0565b5b610b3282546108b2565b610b3d828285610a79565b600060209050601f831160018114610b705760008415610b5e578287015190505b610b688582610aea565b865550610bd0565b601f198416610b7e8661095a565b60005b82811015610ba657848901518255600182019150602085019450602081019050610b81565b86831015610bc35784890151610bbf601f891682610acc565b8355505b6001600288020188555050505b505050505050565b6000606082019050610bed60008301866106ac565b8181036020830152610bff81856105ed565b9050610c0e6040830184610658565b94935050505056fea26469706673582212208514091a5c1271d96b6f3be8e87586ee605a1afd92e9bd66f2ddf08db821df1464736f6c63430008180033",
  "linkReferences": {},
  "deployedLinkReferences": {}
}