{
  "_format": "hh-sol-artifact-1",
  "contractName": "FileStorage",
  "sourceName": "contracts/FileStorage.sol",
  "abi": [
    {
      "inputs": [
        {
          "internalType": "string",
          "name": "name",
          "type": "string"
        }
      ],
      "name": "getFile",
      "outputs": [
        {
          "internalType": "bytes",
          "name": "",
          "type": "bytes"
        }
      ],
      "stateMutability": "view",
      "type": "function"
    },
    {
      "inputs": [],
      "name": "getFileNames",
      "outputs": [
        {
          "internalType": "string[]",
          "name": "",
          "type": "string[]"
        }
      ],
      "stateMutability": "view",
      "type": "function"
    },
    {
      "inputs": [],
      "name": "getSpaceLeft",
      "outputs": [
        {
          "internalType": "uint256",
          "name": "",
          "type": "uint256"
        }
      ],
      "stateMutability": "view",
      "type": "function"
    },
    {
      "inputs": [
        {
          "internalType": "string",
          "name": "name",
          "type": "string"
        },
        {
          "internalType": "bytes",
          "name": "content",
          "type": "bytes"
        }
      ],
      "name": "uploadFile",
      "outputs": [],
      "stateMutability": "nonpayable",
      "type": "function"
    },
    {
      "inputs": [
        {
          "internalType": "address",
          "name": "",
          "type": "address"
        }
      ],
      "name": "users",
      "outputs": [
        {
          "internalType": "uint256",
          "name": "occupiedSpace",
          "type": "uint256"
        }
      ],
      "stateMutability": "view",
      "type": "function"
    }
  ],
  "bytecode": "0x60806040526210000060005534801561001757600080fd5b5061106f806100276000396000f3fe608060405234801561001057600080fd5b50600436106100575760003560e01c80633b108f831461005c578063a87430ba14610078578063aba9425f146100a8578063bfcd5289146100c6578063e0876aa8146100e4575b600080fd5b61007660048036038101906100719190610a10565b610114565b005b610092600480360381019061008d91906109a6565b61046c565b60405161009f9190610c98565b60405180910390f35b6100b061048a565b6040516100bd9190610c98565b60405180910390f35b6100ce6104e1565b6040516100db9190610c14565b60405180910390f35b6100fe60048036038101906100f991906109cf565b6105fa565b60405161010b9190610c36565b60405180910390f35b6000815190506000600160003373ffffffffffffffffffffffffffffffffffffffff1673ffffffffffffffffffffffffffffffffffffffff1681526020019081526020016000206000018460405161016c9190610bfd565b9081526020016040518091039020600001805461018890610ecf565b9050905060008183600160003373ffffffffffffffffffffffffffffffffffffffff1673ffffffffffffffffffffffffffffffffffffffff168152602001908152602001600020600301546101dd9190610dc7565b6101e79190610e1d565b905060005481111561022e576040517f08c379a000000000000000000000000000000000000000000000000000000000815260040161022590610c58565b60405180910390fd5b80600160003373ffffffffffffffffffffffffffffffffffffffff1673ffffffffffffffffffffffffffffffffffffffff16815260200190815260200160002060030181905550604051806020016040528085815250600160003373ffffffffffffffffffffffffffffffffffffffff1673ffffffffffffffffffffffffffffffffffffffff168152602001908152602001600020600001866040516102d49190610bfd565b908152602001604051809103902060008201518160000190805190602001906102fe929190610798565b50905050600160003373ffffffffffffffffffffffffffffffffffffffff1673ffffffffffffffffffffffffffffffffffffffff168152602001908152602001600020600201856040516103529190610bfd565b908152602001604051809103902060009054906101000a900460ff1661046557600160003373ffffffffffffffffffffffffffffffffffffffff1673ffffffffffffffffffffffffffffffffffffffff168152602001908152602001600020600101859080600181540180825580915050600190039060005260206000200160009091909190915090805190602001906103ed92919061081e565b5060018060003373ffffffffffffffffffffffffffffffffffffffff1673ffffffffffffffffffffffffffffffffffffffff1681526020019081526020016000206002018660405161043f9190610bfd565b908152602001604051809103902060006101000a81548160ff0219169083151502179055505b5050505050565b60016020528060005260406000206000915090508060030154905081565b6000600160003373ffffffffffffffffffffffffffffffffffffffff1673ffffffffffffffffffffffffffffffffffffffff168152602001908152602001600020600301546000546104dc9190610e1d565b905090565b6060600160003373ffffffffffffffffffffffffffffffffffffffff1673ffffffffffffffffffffffffffffffffffffffff168152602001908152602001600020600101805480602002602001604051908101604052809291908181526020016000905b828210156105f157838290600052602060002001805461056490610ecf565b80601f016020809104026020016040519081016040528092919081815260200182805461059090610ecf565b80156105dd5780601f106105b2576101008083540402835291602001916105dd565b820191906000526020600020905b8154815290600101906020018083116105c057829003601f168201915b505050505081526020019060010190610545565b50505050905090565b6060600160003373ffffffffffffffffffffffffffffffffffffffff1673ffffffffffffffffffffffffffffffffffffffff1681526020019081526020016000206002018260405161064c9190610bfd565b908152602001604051809103902060009054906101000a900460ff166106a7576040517f08c379a000000000000000000000000000000000000000000000000000000000815260040161069e90610c78565b60405180910390fd5b600160003373ffffffffffffffffffffffffffffffffffffffff1673ffffffffffffffffffffffffffffffffffffffff168152602001908152602001600020600001826040516106f79190610bfd565b9081526020016040518091039020600001805461071390610ecf565b80601f016020809104026020016040519081016040528092919081815260200182805461073f90610ecf565b801561078c5780601f106107615761010080835404028352916020019161078c565b820191906000526020600020905b81548152906001019060200180831161076f57829003601f168201915b50505050509050919050565b8280546107a490610ecf565b90600052602060002090601f0160209004810192826107c6576000855561080d565b82601f106107df57805160ff191683800117855561080d565b8280016001018555821561080d579182015b8281111561080c5782518255916020019190600101906107f1565b5b50905061081a91906108a4565b5090565b82805461082a90610ecf565b90600052602060002090601f01602090048101928261084c5760008555610893565b82601f1061086557805160ff1916838001178555610893565b82800160010185558215610893579182015b82811115610892578251825591602001919060010190610877565b5b5090506108a091906108a4565b5090565b5b808211156108bd5760008160009055506001016108a5565b5090565b60006108d46108cf84610cd8565b610cb3565b9050828152602081018484840111156108ec57600080fd5b6108f7848285610e8d565b509392505050565b600061091261090d84610d09565b610cb3565b90508281526020810184848401111561092a57600080fd5b610935848285610e8d565b509392505050565b60008135905061094c81611022565b92915050565b600082601f83011261096357600080fd5b81356109738482602086016108c1565b91505092915050565b600082601f83011261098d57600080fd5b813561099d8482602086016108ff565b91505092915050565b6000602082840312156109b857600080fd5b60006109c68482850161093d565b91505092915050565b6000602082840312156109e157600080fd5b600082013567ffffffffffffffff8111156109fb57600080fd5b610a078482850161097c565b91505092915050565b60008060408385031215610a2357600080fd5b600083013567ffffffffffffffff811115610a3d57600080fd5b610a498582860161097c565b925050602083013567ffffffffffffffff811115610a6657600080fd5b610a7285828601610952565b9150509250929050565b6000610a888383610b3e565b905092915050565b6000610a9b82610d4a565b610aa58185610d78565b935083602082028501610ab785610d3a565b8060005b85811015610af35784840389528151610ad48582610a7c565b9450610adf83610d6b565b925060208a01995050600181019050610abb565b50829750879550505050505092915050565b6000610b1082610d55565b610b1a8185610d89565b9350610b2a818560208601610e9c565b610b3381610fbf565b840191505092915050565b6000610b4982610d60565b610b538185610d9a565b9350610b63818560208601610e9c565b610b6c81610fbf565b840191505092915050565b6000610b8282610d60565b610b8c8185610dbc565b9350610b9c818560208601610e9c565b80840191505092915050565b6000610bb5601783610dab565b9150610bc082610fd0565b602082019050919050565b6000610bd8601083610dab565b9150610be382610ff9565b602082019050919050565b610bf781610e83565b82525050565b6000610c098284610b77565b915081905092915050565b60006020820190508181036000830152610c2e8184610a90565b905092915050565b60006020820190508181036000830152610c508184610b05565b905092915050565b60006020820190508181036000830152610c7181610ba8565b9050919050565b60006020820190508181036000830152610c9181610bcb565b9050919050565b6000602082019050610cad6000830184610bee565b92915050565b6000610cbd610cce565b9050610cc98282610f01565b919050565b6000604051905090565b600067ffffffffffffffff821115610cf357610cf2610f90565b5b610cfc82610fbf565b9050602081019050919050565b600067ffffffffffffffff821115610d2457610d23610f90565b5b610d2d82610fbf565b9050602081019050919050565b6000819050602082019050919050565b600081519050919050565b600081519050919050565b600081519050919050565b6000602082019050919050565b600082825260208201905092915050565b600082825260208201905092915050565b600082825260208201905092915050565b600082825260208201905092915050565b600081905092915050565b6000610dd282610e83565b9150610ddd83610e83565b9250827fffffffffffffffffffffffffffffffffffffffffffffffffffffffffffffffff03821115610e1257610e11610f32565b5b828201905092915050565b6000610e2882610e83565b9150610e3383610e83565b925082821015610e4657610e45610f32565b5b828203905092915050565b6000610e5c82610e63565b9050919050565b600073ffffffffffffffffffffffffffffffffffffffff82169050919050565b6000819050919050565b82818337600083830152505050565b60005b83811015610eba578082015181840152602081019050610e9f565b83811115610ec9576000848401525b50505050565b60006002820490506001821680610ee757607f821691505b60208210811415610efb57610efa610f61565b5b50919050565b610f0a82610fbf565b810181811067ffffffffffffffff82111715610f2957610f28610f90565b5b80604052505050565b7f4e487b7100000000000000000000000000000000000000000000000000000000600052601160045260246000fd5b7f4e487b7100000000000000000000000000000000000000000000000000000000600052602260045260246000fd5b7f4e487b7100000000000000000000000000000000000000000000000000000000600052604160045260246000fd5b6000601f19601f8301169050919050565b7f5370617a696f206d617373696d6f20737570657261746f000000000000000000600082015250565b7f46696c65206e6f6e2074726f7661746f00000000000000000000000000000000600082015250565b61102b81610e51565b811461103657600080fd5b5056fea2646970667358221220e9c87be17e436a07b510daf2e86378cdc7ba3df86c6af793bce3a8d33f5d868264736f6c63430008040033",
  "linkReferences": {},
  "deployedLinkReferences": {}
}