{
  "_format": "hh-sol-artifact-1",
  "contractName": "FileStorage",
  "sourceName": "contracts/FileStorage.sol",
  "abi": [
    {
      "inputs": [
        {
          "internalType": "string",
          "name": "name",
          "type": "string"
        }
      ],
      "name": "getFile",
      "outputs": [
        {
          "internalType": "bytes",
          "name": "",
          "type": "bytes"
        }
      ],
      "stateMutability": "view",
      "type": "function"
    },
    {
      "inputs": [],
      "name": "getFileNames",
      "outputs": [
        {
          "internalType": "string[]",
          "name": "",
          "type": "string[]"
        }
      ],
      "stateMutability": "view",
      "type": "function"
    },
    {
      "inputs": [],
      "name": "getSpaceLeft",
      "outputs": [
        {
          "internalType": "uint256",
          "name": "",
          "type": "uint256"
        }
      ],
      "stateMutability": "view",
      "type": "function"
    },
    {
      "inputs": [
        {
          "internalType": "string",
          "name": "name",
          "type": "string"
        }
      ],
      "name": "isFileAlreadyIn",
      "outputs": [
        {
          "internalType": "bool",
          "name": "",
          "type": "bool"
        }
      ],
      "stateMutability": "view",
      "type": "function"
    },
    {
      "inputs": [
        {
          "internalType": "string",
          "name": "name",
          "type": "string"
        },
        {
          "internalType": "bytes",
          "name": "content",
          "type": "bytes"
        }
      ],
      "name": "uploadFile",
      "outputs": [],
      "stateMutability": "nonpayable",
      "type": "function"
    },
    {
      "inputs": [
        {
          "internalType": "address",
          "name": "",
          "type": "address"
        }
      ],
      "name": "users",
      "outputs": [
        {
          "internalType": "uint256",
          "name": "occupiedSpace",
          "type": "uint256"
        }
      ],
      "stateMutability": "view",
      "type": "function"
    }
  ],
  "bytecode": "0x60806040526210000060005534801561001757600080fd5b50611154806100276000396000f3fe608060405234801561001057600080fd5b50600436106100615760003560e01c806221ccc4146100665780633b108f8314610096578063a87430ba146100b2578063aba9425f146100e2578063bfcd528914610100578063e0876aa81461011e575b600080fd5b610080600480360381019061007b9190610a7e565b61014e565b60405161008d9190610cf4565b60405180910390f35b6100b060048036038101906100ab9190610abf565b6101c3565b005b6100cc60048036038101906100c79190610a55565b61051b565b6040516100d99190610d71565b60405180910390f35b6100ea610539565b6040516100f79190610d71565b60405180910390f35b610108610590565b6040516101159190610cd2565b60405180910390f35b61013860048036038101906101339190610a7e565b6106a9565b6040516101459190610d0f565b60405180910390f35b6000600160003373ffffffffffffffffffffffffffffffffffffffff1673ffffffffffffffffffffffffffffffffffffffff168152602001908152602001600020600201826040516101a09190610cbb565b908152602001604051809103902060009054906101000a900460ff169050919050565b6000815190506000600160003373ffffffffffffffffffffffffffffffffffffffff1673ffffffffffffffffffffffffffffffffffffffff1681526020019081526020016000206000018460405161021b9190610cbb565b9081526020016040518091039020600001805461023790610fb4565b9050905060008183600160003373ffffffffffffffffffffffffffffffffffffffff1673ffffffffffffffffffffffffffffffffffffffff1681526020019081526020016000206003015461028c9190610ea0565b6102969190610ef6565b90506000548111156102dd576040517f08c379a00000000000000000000000000000000000000000000000000000000081526004016102d490610d31565b60405180910390fd5b80600160003373ffffffffffffffffffffffffffffffffffffffff1673ffffffffffffffffffffffffffffffffffffffff16815260200190815260200160002060030181905550604051806020016040528085815250600160003373ffffffffffffffffffffffffffffffffffffffff1673ffffffffffffffffffffffffffffffffffffffff168152602001908152602001600020600001866040516103839190610cbb565b908152602001604051809103902060008201518160000190805190602001906103ad929190610847565b50905050600160003373ffffffffffffffffffffffffffffffffffffffff1673ffffffffffffffffffffffffffffffffffffffff168152602001908152602001600020600201856040516104019190610cbb565b908152602001604051809103902060009054906101000a900460ff1661051457600160003373ffffffffffffffffffffffffffffffffffffffff1673ffffffffffffffffffffffffffffffffffffffff1681526020019081526020016000206001018590806001815401808255809150506001900390600052602060002001600090919091909150908051906020019061049c9291906108cd565b5060018060003373ffffffffffffffffffffffffffffffffffffffff1673ffffffffffffffffffffffffffffffffffffffff168152602001908152602001600020600201866040516104ee9190610cbb565b908152602001604051809103902060006101000a81548160ff0219169083151502179055505b5050505050565b60016020528060005260406000206000915090508060030154905081565b6000600160003373ffffffffffffffffffffffffffffffffffffffff1673ffffffffffffffffffffffffffffffffffffffff1681526020019081526020016000206003015460005461058b9190610ef6565b905090565b6060600160003373ffffffffffffffffffffffffffffffffffffffff1673ffffffffffffffffffffffffffffffffffffffff168152602001908152602001600020600101805480602002602001604051908101604052809291908181526020016000905b828210156106a057838290600052602060002001805461061390610fb4565b80601f016020809104026020016040519081016040528092919081815260200182805461063f90610fb4565b801561068c5780601f106106615761010080835404028352916020019161068c565b820191906000526020600020905b81548152906001019060200180831161066f57829003601f168201915b5050505050815260200190600101906105f4565b50505050905090565b6060600160003373ffffffffffffffffffffffffffffffffffffffff1673ffffffffffffffffffffffffffffffffffffffff168152602001908152602001600020600201826040516106fb9190610cbb565b908152602001604051809103902060009054906101000a900460ff16610756576040517f08c379a000000000000000000000000000000000000000000000000000000000815260040161074d90610d51565b60405180910390fd5b600160003373ffffffffffffffffffffffffffffffffffffffff1673ffffffffffffffffffffffffffffffffffffffff168152602001908152602001600020600001826040516107a69190610cbb565b908152602001604051809103902060000180546107c290610fb4565b80601f01602080910402602001604051908101604052809291908181526020018280546107ee90610fb4565b801561083b5780601f106108105761010080835404028352916020019161083b565b820191906000526020600020905b81548152906001019060200180831161081e57829003601f168201915b50505050509050919050565b82805461085390610fb4565b90600052602060002090601f01602090048101928261087557600085556108bc565b82601f1061088e57805160ff19168380011785556108bc565b828001600101855582156108bc579182015b828111156108bb5782518255916020019190600101906108a0565b5b5090506108c99190610953565b5090565b8280546108d990610fb4565b90600052602060002090601f0160209004810192826108fb5760008555610942565b82601f1061091457805160ff1916838001178555610942565b82800160010185558215610942579182015b82811115610941578251825591602001919060010190610926565b5b50905061094f9190610953565b5090565b5b8082111561096c576000816000905550600101610954565b5090565b600061098361097e84610db1565b610d8c565b90508281526020810184848401111561099b57600080fd5b6109a6848285610f72565b509392505050565b60006109c16109bc84610de2565b610d8c565b9050828152602081018484840111156109d957600080fd5b6109e4848285610f72565b509392505050565b6000813590506109fb81611107565b92915050565b600082601f830112610a1257600080fd5b8135610a22848260208601610970565b91505092915050565b600082601f830112610a3c57600080fd5b8135610a4c8482602086016109ae565b91505092915050565b600060208284031215610a6757600080fd5b6000610a75848285016109ec565b91505092915050565b600060208284031215610a9057600080fd5b600082013567ffffffffffffffff811115610aaa57600080fd5b610ab684828501610a2b565b91505092915050565b60008060408385031215610ad257600080fd5b600083013567ffffffffffffffff811115610aec57600080fd5b610af885828601610a2b565b925050602083013567ffffffffffffffff811115610b1557600080fd5b610b2185828601610a01565b9150509250929050565b6000610b378383610bfc565b905092915050565b6000610b4a82610e23565b610b548185610e51565b935083602082028501610b6685610e13565b8060005b85811015610ba25784840389528151610b838582610b2b565b9450610b8e83610e44565b925060208a01995050600181019050610b6a565b50829750879550505050505092915050565b610bbd81610f3c565b82525050565b6000610bce82610e2e565b610bd88185610e62565b9350610be8818560208601610f81565b610bf1816110a4565b840191505092915050565b6000610c0782610e39565b610c118185610e73565b9350610c21818560208601610f81565b610c2a816110a4565b840191505092915050565b6000610c4082610e39565b610c4a8185610e95565b9350610c5a818560208601610f81565b80840191505092915050565b6000610c73601783610e84565b9150610c7e826110b5565b602082019050919050565b6000610c96601083610e84565b9150610ca1826110de565b602082019050919050565b610cb581610f68565b82525050565b6000610cc78284610c35565b915081905092915050565b60006020820190508181036000830152610cec8184610b3f565b905092915050565b6000602082019050610d096000830184610bb4565b92915050565b60006020820190508181036000830152610d298184610bc3565b905092915050565b60006020820190508181036000830152610d4a81610c66565b9050919050565b60006020820190508181036000830152610d6a81610c89565b9050919050565b6000602082019050610d866000830184610cac565b92915050565b6000610d96610da7565b9050610da28282610fe6565b919050565b6000604051905090565b600067ffffffffffffffff821115610dcc57610dcb611075565b5b610dd5826110a4565b9050602081019050919050565b600067ffffffffffffffff821115610dfd57610dfc611075565b5b610e06826110a4565b9050602081019050919050565b6000819050602082019050919050565b600081519050919050565b600081519050919050565b600081519050919050565b6000602082019050919050565b600082825260208201905092915050565b600082825260208201905092915050565b600082825260208201905092915050565b600082825260208201905092915050565b600081905092915050565b6000610eab82610f68565b9150610eb683610f68565b9250827fffffffffffffffffffffffffffffffffffffffffffffffffffffffffffffffff03821115610eeb57610eea611017565b5b828201905092915050565b6000610f0182610f68565b9150610f0c83610f68565b925082821015610f1f57610f1e611017565b5b828203905092915050565b6000610f3582610f48565b9050919050565b60008115159050919050565b600073ffffffffffffffffffffffffffffffffffffffff82169050919050565b6000819050919050565b82818337600083830152505050565b60005b83811015610f9f578082015181840152602081019050610f84565b83811115610fae576000848401525b50505050565b60006002820490506001821680610fcc57607f821691505b60208210811415610fe057610fdf611046565b5b50919050565b610fef826110a4565b810181811067ffffffffffffffff8211171561100e5761100d611075565b5b80604052505050565b7f4e487b7100000000000000000000000000000000000000000000000000000000600052601160045260246000fd5b7f4e487b7100000000000000000000000000000000000000000000000000000000600052602260045260246000fd5b7f4e487b7100000000000000000000000000000000000000000000000000000000600052604160045260246000fd5b6000601f19601f8301169050919050565b7f5370617a696f206d617373696d6f20737570657261746f000000000000000000600082015250565b7f46696c65206e6f6e2074726f7661746f00000000000000000000000000000000600082015250565b61111081610f2a565b811461111b57600080fd5b5056fea2646970667358221220af72f00fdf896da9f4e73cd28d00abda76c96a7d9ee7363137cb86cb73597ceb64736f6c63430008040033",
  "linkReferences": {},
  "deployedLinkReferences": {}
}