{
  "_format": "hh-sol-artifact-1",
  "contractName": "FileStorage",
  "sourceName": "contracts/FileStorage.sol",
  "abi": [
    {
      "inputs": [
        {
          "internalType": "string",
          "name": "name",
          "type": "string"
        }
      ],
      "name": "getFile",
      "outputs": [
        {
          "internalType": "bytes",
          "name": "",
          "type": "bytes"
        }
      ],
      "stateMutability": "view",
      "type": "function"
    },
    {
      "inputs": [],
      "name": "getFileNames",
      "outputs": [
        {
          "internalType": "string",
          "name": "",
          "type": "string"
        }
      ],
      "stateMutability": "view",
      "type": "function"
    },
    {
      "inputs": [],
      "name": "getSpaceLeft",
      "outputs": [
        {
          "internalType": "uint256",
          "name": "",
          "type": "uint256"
        }
      ],
      "stateMutability": "view",
      "type": "function"
    },
    {
      "inputs": [
        {
          "internalType": "string",
          "name": "name",
          "type": "string"
        },
        {
          "internalType": "bytes",
          "name": "content",
          "type": "bytes"
        }
      ],
      "name": "uploadFile",
      "outputs": [],
      "stateMutability": "nonpayable",
      "type": "function"
    },
    {
      "inputs": [
        {
          "internalType": "address",
          "name": "",
          "type": "address"
        }
      ],
      "name": "users",
      "outputs": [
        {
          "internalType": "uint256",
          "name": "file_num",
          "type": "uint256"
        },
        {
          "internalType": "uint256",
          "name": "occupiedSpace",
          "type": "uint256"
        }
      ],
      "stateMutability": "view",
      "type": "function"
    }
  ],
  "bytecode": "0x608060405264014000000060005534801561001957600080fd5b50611154806100296000396000f3fe608060405234801561001057600080fd5b50600436106100575760003560e01c80633b108f831461005c578063a87430ba14610078578063aba9425f146100a9578063bfcd5289146100c7578063e0876aa8146100e5575b600080fd5b61007660048036038101906100719190610a85565b610115565b005b610092600480360381019061008d9190610a1b565b6103ec565b6040516100a0929190610d5b565b60405180910390f35b6100b1610410565b6040516100be9190610d40565b60405180910390f35b6100cf610467565b6040516100dc9190610cfe565b60405180910390f35b6100ff60048036038101906100fa9190610a44565b6105ae565b60405161010c9190610cdc565b60405180910390f35b6000815190506000600160003373ffffffffffffffffffffffffffffffffffffffff1673ffffffffffffffffffffffffffffffffffffffff1681526020019081526020016000206000018460405161016d9190610c68565b9081526020016040518091039020600001805461018990610f6b565b9050905060008183600160003373ffffffffffffffffffffffffffffffffffffffff1673ffffffffffffffffffffffffffffffffffffffff168152602001908152602001600020600301546101de9190610e63565b6101e89190610eb9565b905060005481111561022f576040517f08c379a000000000000000000000000000000000000000000000000000000000815260040161022690610d20565b60405180910390fd5b80600160003373ffffffffffffffffffffffffffffffffffffffff1673ffffffffffffffffffffffffffffffffffffffff16815260200190815260200160002060030181905550604051806020016040528085815250600160003373ffffffffffffffffffffffffffffffffffffffff1673ffffffffffffffffffffffffffffffffffffffff168152602001908152602001600020600001866040516102d59190610c68565b908152602001604051809103902060008201518160000190805190602001906102ff92919061080d565b5090505061030c856106bc565b6103e557600160003373ffffffffffffffffffffffffffffffffffffffff1673ffffffffffffffffffffffffffffffffffffffff1681526020019081526020016000206001018590806001815401808255809150506001900390600052602060002001600090919091909150908051906020019061038b929190610893565b50600160003373ffffffffffffffffffffffffffffffffffffffff1673ffffffffffffffffffffffffffffffffffffffff16815260200190815260200160002060020160008154809291906103df90610fce565b91905055505b5050505050565b60016020528060005260406000206000915090508060020154908060030154905082565b6000600160003373ffffffffffffffffffffffffffffffffffffffff1673ffffffffffffffffffffffffffffffffffffffff168152602001908152602001600020600301546000546104629190610eb9565b905090565b6060600060405180602001604052806000815250905060005b600160003373ffffffffffffffffffffffffffffffffffffffff1673ffffffffffffffffffffffffffffffffffffffff168152602001908152602001600020600201548110156105a65781600160003373ffffffffffffffffffffffffffffffffffffffff1673ffffffffffffffffffffffffffffffffffffffff1681526020019081526020016000206001018281548110610545577f4e487b7100000000000000000000000000000000000000000000000000000000600052603260045260246000fd5b90600052602060002001604051602001610560929190610c7f565b6040516020818303038152906040529150816040516020016105829190610ca3565b6040516020818303038152906040529150808061059e90610fce565b915050610480565b508091505090565b60606000600160003373ffffffffffffffffffffffffffffffffffffffff1673ffffffffffffffffffffffffffffffffffffffff168152602001908152602001600020600001836040516106029190610c68565b908152602001604051809103902060405180602001604052908160008201805461062b90610f6b565b80601f016020809104026020016040519081016040528092919081815260200182805461065790610f6b565b80156106a45780601f10610679576101008083540402835291602001916106a4565b820191906000526020600020905b81548152906001019060200180831161068757829003601f168201915b50505050508152505090508060000151915050919050565b600080600090505b600160003373ffffffffffffffffffffffffffffffffffffffff1673ffffffffffffffffffffffffffffffffffffffff16815260200190815260200160002060020154811015610802578260405160200161071f9190610c68565b60405160208183030381529060405280519060200120600160003373ffffffffffffffffffffffffffffffffffffffff1673ffffffffffffffffffffffffffffffffffffffff16815260200190815260200160002060010182815481106107af577f4e487b7100000000000000000000000000000000000000000000000000000000600052603260045260246000fd5b906000526020600020016040516020016107c99190610cc5565b6040516020818303038152906040528051906020012014156107ef576001915050610808565b80806107fa90610fce565b9150506106c4565b50600090505b919050565b82805461081990610f6b565b90600052602060002090601f01602090048101928261083b5760008555610882565b82601f1061085457805160ff1916838001178555610882565b82800160010185558215610882579182015b82811115610881578251825591602001919060010190610866565b5b50905061088f9190610919565b5090565b82805461089f90610f6b565b90600052602060002090601f0160209004810192826108c15760008555610908565b82601f106108da57805160ff1916838001178555610908565b82800160010185558215610908579182015b828111156109075782518255916020019190600101906108ec565b5b5090506109159190610919565b5090565b5b8082111561093257600081600090555060010161091a565b5090565b600061094961094484610da9565b610d84565b90508281526020810184848401111561096157600080fd5b61096c848285610f29565b509392505050565b600061098761098284610dda565b610d84565b90508281526020810184848401111561099f57600080fd5b6109aa848285610f29565b509392505050565b6000813590506109c181611107565b92915050565b600082601f8301126109d857600080fd5b81356109e8848260208601610936565b91505092915050565b600082601f830112610a0257600080fd5b8135610a12848260208601610974565b91505092915050565b600060208284031215610a2d57600080fd5b6000610a3b848285016109b2565b91505092915050565b600060208284031215610a5657600080fd5b600082013567ffffffffffffffff811115610a7057600080fd5b610a7c848285016109f1565b91505092915050565b60008060408385031215610a9857600080fd5b600083013567ffffffffffffffff811115610ab257600080fd5b610abe858286016109f1565b925050602083013567ffffffffffffffff811115610adb57600080fd5b610ae7858286016109c7565b9150509250929050565b6000610afc82610e20565b610b068185610e36565b9350610b16818560208601610f38565b610b1f816110a4565b840191505092915050565b6000610b3582610e2b565b610b3f8185610e47565b9350610b4f818560208601610f38565b610b58816110a4565b840191505092915050565b6000610b6e82610e2b565b610b788185610e58565b9350610b88818560208601610f38565b80840191505092915050565b60008154610ba181610f6b565b610bab8186610e58565b94506001821660008114610bc65760018114610bd757610c0a565b60ff19831686528186019350610c0a565b610be085610e0b565b60005b83811015610c0257815481890152600182019150602081019050610be3565b838801955050505b50505092915050565b6000610c20600183610e58565b9150610c2b826110b5565b600182019050919050565b6000610c43601783610e47565b9150610c4e826110de565b602082019050919050565b610c6281610f1f565b82525050565b6000610c748284610b63565b915081905092915050565b6000610c8b8285610b63565b9150610c978284610b94565b91508190509392505050565b6000610caf8284610b63565b9150610cba82610c13565b915081905092915050565b6000610cd18284610b94565b915081905092915050565b60006020820190508181036000830152610cf68184610af1565b905092915050565b60006020820190508181036000830152610d188184610b2a565b905092915050565b60006020820190508181036000830152610d3981610c36565b9050919050565b6000602082019050610d556000830184610c59565b92915050565b6000604082019050610d706000830185610c59565b610d7d6020830184610c59565b9392505050565b6000610d8e610d9f565b9050610d9a8282610f9d565b919050565b6000604051905090565b600067ffffffffffffffff821115610dc457610dc3611075565b5b610dcd826110a4565b9050602081019050919050565b600067ffffffffffffffff821115610df557610df4611075565b5b610dfe826110a4565b9050602081019050919050565b60008190508160005260206000209050919050565b600081519050919050565b600081519050919050565b600082825260208201905092915050565b600082825260208201905092915050565b600081905092915050565b6000610e6e82610f1f565b9150610e7983610f1f565b9250827fffffffffffffffffffffffffffffffffffffffffffffffffffffffffffffffff03821115610eae57610ead611017565b5b828201905092915050565b6000610ec482610f1f565b9150610ecf83610f1f565b925082821015610ee257610ee1611017565b5b828203905092915050565b6000610ef882610eff565b9050919050565b600073ffffffffffffffffffffffffffffffffffffffff82169050919050565b6000819050919050565b82818337600083830152505050565b60005b83811015610f56578082015181840152602081019050610f3b565b83811115610f65576000848401525b50505050565b60006002820490506001821680610f8357607f821691505b60208210811415610f9757610f96611046565b5b50919050565b610fa6826110a4565b810181811067ffffffffffffffff82111715610fc557610fc4611075565b5b80604052505050565b6000610fd982610f1f565b91507fffffffffffffffffffffffffffffffffffffffffffffffffffffffffffffffff82141561100c5761100b611017565b5b600182019050919050565b7f4e487b7100000000000000000000000000000000000000000000000000000000600052601160045260246000fd5b7f4e487b7100000000000000000000000000000000000000000000000000000000600052602260045260246000fd5b7f4e487b7100000000000000000000000000000000000000000000000000000000600052604160045260246000fd5b6000601f19601f8301169050919050565b7f2c00000000000000000000000000000000000000000000000000000000000000600082015250565b7f5370617a696f206d617373696d6f20737570657261746f000000000000000000600082015250565b61111081610eed565b811461111b57600080fd5b5056fea2646970667358221220f4ecf3e104eea8d7a578118b67edf247d56851ce38ba26734c6b08b9bd9e9e2664736f6c63430008040033",
  "linkReferences": {},
  "deployedLinkReferences": {}
}