{
  "_format": "hh-sol-artifact-1",
  "contractName": "FileStorage",
  "sourceName": "contracts/FileStorage.sol",
  "abi": [
    {
      "inputs": [],
      "stateMutability": "nonpayable",
      "type": "constructor"
    },
    {
      "inputs": [],
      "name": "fileCount",
      "outputs": [
        {
          "internalType": "uint256",
          "name": "",
          "type": "uint256"
        }
      ],
      "stateMutability": "view",
      "type": "function"
    },
    {
      "inputs": [
        {
          "internalType": "uint256",
          "name": "",
          "type": "uint256"
        }
      ],
      "name": "files",
      "outputs": [
        {
          "internalType": "string",
          "name": "name",
          "type": "string"
        },
        {
          "internalType": "string",
          "name": "content",
          "type": "string"
        },
        {
          "internalType": "address",
          "name": "owner",
          "type": "address"
        }
      ],
      "stateMutability": "view",
      "type": "function"
    },
    {
      "inputs": [
        {
          "internalType": "uint256",
          "name": "fileId",
          "type": "uint256"
        }
      ],
      "name": "getFile",
      "outputs": [
        {
          "internalType": "string",
          "name": "",
          "type": "string"
        },
        {
          "internalType": "string",
          "name": "",
          "type": "string"
        },
        {
          "internalType": "address",
          "name": "",
          "type": "address"
        }
      ],
      "stateMutability": "view",
      "type": "function"
    },
    {
      "inputs": [],
      "name": "getFileNum",
      "outputs": [
        {
          "internalType": "uint256",
          "name": "",
          "type": "uint256"
        }
      ],
      "stateMutability": "view",
      "type": "function"
    },
    {
      "inputs": [
        {
          "internalType": "string",
          "name": "name",
          "type": "string"
        },
        {
          "internalType": "string",
          "name": "content",
          "type": "string"
        }
      ],
      "name": "uploadFile",
      "outputs": [],
      "stateMutability": "nonpayable",
      "type": "function"
    }
  ],
  "bytecode": "0x608060405234801561001057600080fd5b506000600181905550610a16806100286000396000f3fe608060405234801561001057600080fd5b50600436106100575760003560e01c80632bfda3131461005c578063439535191461008e578063996d50bf146100ac578063ef9c79da146100c8578063f4c714b4146100e6575b600080fd5b610076600480360381019061007191906106af565b610118565b6040516100859392919061072f565b60405180910390f35b6100966102d4565b6040516100a39190610774565b60405180910390f35b6100c660048036038101906100c19190610643565b6102da565b005b6100d06103bf565b6040516100dd9190610774565b60405180910390f35b61010060048036038101906100fb91906106af565b6103c9565b60405161010f9392919061072f565b60405180910390f35b60608060008060008086815260200190815260200160002060405180606001604052908160008201805461014b9061087f565b80601f01602080910402602001604051908101604052809291908181526020018280546101779061087f565b80156101c45780601f10610199576101008083540402835291602001916101c4565b820191906000526020600020905b8154815290600101906020018083116101a757829003601f168201915b505050505081526020016001820180546101dd9061087f565b80601f01602080910402602001604051908101604052809291908181526020018280546102099061087f565b80156102565780601f1061022b57610100808354040283529160200191610256565b820191906000526020600020905b81548152906001019060200180831161023957829003601f168201915b505050505081526020016002820160009054906101000a900473ffffffffffffffffffffffffffffffffffffffff1673ffffffffffffffffffffffffffffffffffffffff1673ffffffffffffffffffffffffffffffffffffffff16815250509050806000015181602001518260400151935093509350509193909250565b60015481565b60405180606001604052808381526020018281526020013373ffffffffffffffffffffffffffffffffffffffff168152506000806001548152602001908152602001600020600082015181600001908051906020019061033b929190610523565b506020820151816001019080519060200190610358929190610523565b5060408201518160020160006101000a81548173ffffffffffffffffffffffffffffffffffffffff021916908373ffffffffffffffffffffffffffffffffffffffff160217905550905050600160008154809291906103b6906108e2565b91905055505050565b6000600154905090565b60006020528060005260406000206000915090508060000180546103ec9061087f565b80601f01602080910402602001604051908101604052809291908181526020018280546104189061087f565b80156104655780601f1061043a57610100808354040283529160200191610465565b820191906000526020600020905b81548152906001019060200180831161044857829003601f168201915b50505050509080600101805461047a9061087f565b80601f01602080910402602001604051908101604052809291908181526020018280546104a69061087f565b80156104f35780601f106104c8576101008083540402835291602001916104f3565b820191906000526020600020905b8154815290600101906020018083116104d657829003601f168201915b5050505050908060020160009054906101000a900473ffffffffffffffffffffffffffffffffffffffff16905083565b82805461052f9061087f565b90600052602060002090601f0160209004810192826105515760008555610598565b82601f1061056a57805160ff1916838001178555610598565b82800160010185558215610598579182015b8281111561059757825182559160200191906001019061057c565b5b5090506105a591906105a9565b5090565b5b808211156105c25760008160009055506001016105aa565b5090565b60006105d96105d4846107b4565b61078f565b9050828152602081018484840111156105f157600080fd5b6105fc84828561083d565b509392505050565b600082601f83011261061557600080fd5b81356106258482602086016105c6565b91505092915050565b60008135905061063d816109c9565b92915050565b6000806040838503121561065657600080fd5b600083013567ffffffffffffffff81111561067057600080fd5b61067c85828601610604565b925050602083013567ffffffffffffffff81111561069957600080fd5b6106a585828601610604565b9150509250929050565b6000602082840312156106c157600080fd5b60006106cf8482850161062e565b91505092915050565b6106e181610801565b82525050565b60006106f2826107e5565b6106fc81856107f0565b935061070c81856020860161084c565b610715816109b8565b840191505092915050565b61072981610833565b82525050565b6000606082019050818103600083015261074981866106e7565b9050818103602083015261075d81856106e7565b905061076c60408301846106d8565b949350505050565b60006020820190506107896000830184610720565b92915050565b60006107996107aa565b90506107a582826108b1565b919050565b6000604051905090565b600067ffffffffffffffff8211156107cf576107ce610989565b5b6107d8826109b8565b9050602081019050919050565b600081519050919050565b600082825260208201905092915050565b600061080c82610813565b9050919050565b600073ffffffffffffffffffffffffffffffffffffffff82169050919050565b6000819050919050565b82818337600083830152505050565b60005b8381101561086a57808201518184015260208101905061084f565b83811115610879576000848401525b50505050565b6000600282049050600182168061089757607f821691505b602082108114156108ab576108aa61095a565b5b50919050565b6108ba826109b8565b810181811067ffffffffffffffff821117156108d9576108d8610989565b5b80604052505050565b60006108ed82610833565b91507fffffffffffffffffffffffffffffffffffffffffffffffffffffffffffffffff8214156109205761091f61092b565b5b600182019050919050565b7f4e487b7100000000000000000000000000000000000000000000000000000000600052601160045260246000fd5b7f4e487b7100000000000000000000000000000000000000000000000000000000600052602260045260246000fd5b7f4e487b7100000000000000000000000000000000000000000000000000000000600052604160045260246000fd5b6000601f19601f8301169050919050565b6109d281610833565b81146109dd57600080fd5b5056fea264697066735822122094434ec11da9824e24983e3ba0b562521b2047e7ea8cab06bc28126047fa469064736f6c63430008040033",
  "linkReferences": {},
  "deployedLinkReferences": {}
}