{
  "_format": "hh-sol-artifact-1",
  "contractName": "FileStorage",
  "sourceName": "contracts/FileStorage.sol",
  "abi": [
    {
      "inputs": [
        {
          "internalType": "string",
          "name": "name",
          "type": "string"
        }
      ],
      "name": "getFile",
      "outputs": [
        {
          "internalType": "bytes",
          "name": "",
          "type": "bytes"
        }
      ],
      "stateMutability": "view",
      "type": "function"
    },
    {
      "inputs": [],
      "name": "getSpaceLeft",
      "outputs": [
        {
          "internalType": "uint256",
          "name": "",
          "type": "uint256"
        }
      ],
      "stateMutability": "view",
      "type": "function"
    },
    {
      "inputs": [
        {
          "internalType": "string",
          "name": "name",
          "type": "string"
        },
        {
          "internalType": "bytes",
          "name": "content",
          "type": "bytes"
        }
      ],
      "name": "uploadFile",
      "outputs": [],
      "stateMutability": "nonpayable",
      "type": "function"
    },
    {
      "inputs": [
        {
          "internalType": "address",
          "name": "",
          "type": "address"
        }
      ],
      "name": "users",
      "outputs": [
        {
          "internalType": "uint256",
          "name": "occupiedSpace",
          "type": "uint256"
        }
      ],
      "stateMutability": "view",
      "type": "function"
    }
  ],
  "bytecode": "0x60806040526210000060005534801561001757600080fd5b506109ec806100276000396000f3fe608060405234801561001057600080fd5b506004361061004c5760003560e01c80633b108f8314610051578063a87430ba1461006d578063aba9425f1461009d578063e0876aa8146100bb575b600080fd5b61006b600480360381019061006691906105a4565b6100eb565b005b6100876004803603810190610082919061053a565b61022f565b60405161009491906106c2565b60405180910390f35b6100a561024d565b6040516100b291906106c2565b60405180910390f35b6100d560048036038101906100d09190610563565b6102a4565b6040516100e291906106a0565b60405180910390f35b6000548151600160003373ffffffffffffffffffffffffffffffffffffffff1673ffffffffffffffffffffffffffffffffffffffff1681526020019081526020016000206001015461013d9190610796565b101561022b57604051806020016040528082815250600160003373ffffffffffffffffffffffffffffffffffffffff1673ffffffffffffffffffffffffffffffffffffffff168152602001908152602001600020600001836040516101a29190610689565b908152602001604051809103902060008201518160000190805190602001906101cc9291906103b2565b509050508051600160003373ffffffffffffffffffffffffffffffffffffffff1673ffffffffffffffffffffffffffffffffffffffff16815260200190815260200160002060010160008282546102239190610796565b925050819055505b5050565b60016020528060005260406000206000915090508060010154905081565b6000600160003373ffffffffffffffffffffffffffffffffffffffff1673ffffffffffffffffffffffffffffffffffffffff1681526020019081526020016000206001015460005461029f91906107ec565b905090565b60606000600160003373ffffffffffffffffffffffffffffffffffffffff1673ffffffffffffffffffffffffffffffffffffffff168152602001908152602001600020600001836040516102f89190610689565b90815260200160405180910390206040518060200160405290816000820180546103219061089e565b80601f016020809104026020016040519081016040528092919081815260200182805461034d9061089e565b801561039a5780601f1061036f5761010080835404028352916020019161039a565b820191906000526020600020905b81548152906001019060200180831161037d57829003601f168201915b50505050508152505090508060000151915050919050565b8280546103be9061089e565b90600052602060002090601f0160209004810192826103e05760008555610427565b82601f106103f957805160ff1916838001178555610427565b82800160010185558215610427579182015b8281111561042657825182559160200191906001019061040b565b5b5090506104349190610438565b5090565b5b80821115610451576000816000905550600101610439565b5090565b600061046861046384610702565b6106dd565b90508281526020810184848401111561048057600080fd5b61048b84828561085c565b509392505050565b60006104a66104a184610733565b6106dd565b9050828152602081018484840111156104be57600080fd5b6104c984828561085c565b509392505050565b6000813590506104e08161099f565b92915050565b600082601f8301126104f757600080fd5b8135610507848260208601610455565b91505092915050565b600082601f83011261052157600080fd5b8135610531848260208601610493565b91505092915050565b60006020828403121561054c57600080fd5b600061055a848285016104d1565b91505092915050565b60006020828403121561057557600080fd5b600082013567ffffffffffffffff81111561058f57600080fd5b61059b84828501610510565b91505092915050565b600080604083850312156105b757600080fd5b600083013567ffffffffffffffff8111156105d157600080fd5b6105dd85828601610510565b925050602083013567ffffffffffffffff8111156105fa57600080fd5b610606858286016104e6565b9150509250929050565b600061061b82610764565b610625818561077a565b935061063581856020860161086b565b61063e8161098e565b840191505092915050565b60006106548261076f565b61065e818561078b565b935061066e81856020860161086b565b80840191505092915050565b61068381610852565b82525050565b60006106958284610649565b915081905092915050565b600060208201905081810360008301526106ba8184610610565b905092915050565b60006020820190506106d7600083018461067a565b92915050565b60006106e76106f8565b90506106f382826108d0565b919050565b6000604051905090565b600067ffffffffffffffff82111561071d5761071c61095f565b5b6107268261098e565b9050602081019050919050565b600067ffffffffffffffff82111561074e5761074d61095f565b5b6107578261098e565b9050602081019050919050565b600081519050919050565b600081519050919050565b600082825260208201905092915050565b600081905092915050565b60006107a182610852565b91506107ac83610852565b9250827fffffffffffffffffffffffffffffffffffffffffffffffffffffffffffffffff038211156107e1576107e0610901565b5b828201905092915050565b60006107f782610852565b915061080283610852565b92508282101561081557610814610901565b5b828203905092915050565b600061082b82610832565b9050919050565b600073ffffffffffffffffffffffffffffffffffffffff82169050919050565b6000819050919050565b82818337600083830152505050565b60005b8381101561088957808201518184015260208101905061086e565b83811115610898576000848401525b50505050565b600060028204905060018216806108b657607f821691505b602082108114156108ca576108c9610930565b5b50919050565b6108d98261098e565b810181811067ffffffffffffffff821117156108f8576108f761095f565b5b80604052505050565b7f4e487b7100000000000000000000000000000000000000000000000000000000600052601160045260246000fd5b7f4e487b7100000000000000000000000000000000000000000000000000000000600052602260045260246000fd5b7f4e487b7100000000000000000000000000000000000000000000000000000000600052604160045260246000fd5b6000601f19601f8301169050919050565b6109a881610820565b81146109b357600080fd5b5056fea26469706673582212201ff0abc00f092fb025f888dc1d616477538224525c50f6d05ceacb77a9e2b39c64736f6c63430008040033",
  "linkReferences": {},
  "deployedLinkReferences": {}
}