{
  "_format": "hh-sol-artifact-1",
  "contractName": "FileStorage",
  "sourceName": "contracts/FileStorage.sol",
  "abi": [
    {
      "inputs": [
        {
          "internalType": "string",
          "name": "name",
          "type": "string"
        }
      ],
      "name": "getFile",
      "outputs": [
        {
          "internalType": "bytes",
          "name": "",
          "type": "bytes"
        }
      ],
      "stateMutability": "view",
      "type": "function"
    },
    {
      "inputs": [],
      "name": "getSpaceLeft",
      "outputs": [
        {
          "internalType": "uint256",
          "name": "",
          "type": "uint256"
        }
      ],
      "stateMutability": "view",
      "type": "function"
    },
    {
      "inputs": [
        {
          "internalType": "string",
          "name": "name",
          "type": "string"
        },
        {
          "internalType": "bytes",
          "name": "content",
          "type": "bytes"
        }
      ],
      "name": "uploadFile",
      "outputs": [],
      "stateMutability": "nonpayable",
      "type": "function"
    },
    {
      "inputs": [
        {
          "internalType": "address",
          "name": "",
          "type": "address"
        }
      ],
      "name": "users",
      "outputs": [
        {
          "internalType": "uint256",
          "name": "occupiedSpace",
          "type": "uint256"
        }
      ],
      "stateMutability": "view",
      "type": "function"
    }
  ],
  "bytecode": "0x608060405264014000000060005534801561001957600080fd5b50610b1a806100296000396000f3fe608060405234801561001057600080fd5b506004361061004c5760003560e01c80633b108f8314610051578063a87430ba1461006d578063aba9425f1461009d578063e0876aa8146100bb575b600080fd5b61006b60048036038101906100669190610655565b6100eb565b005b610087600480360381019061008291906105eb565b6102e0565b60405161009491906107b6565b60405180910390f35b6100a56102fe565b6040516100b291906107b6565b60405180910390f35b6100d560048036038101906100d09190610614565b610355565b6040516100e29190610774565b60405180910390f35b6000815190506000600160003373ffffffffffffffffffffffffffffffffffffffff1673ffffffffffffffffffffffffffffffffffffffff16815260200190815260200160002060000184604051610143919061075d565b9081526020016040518091039020600001805461015f906109a3565b9050905060008183600160003373ffffffffffffffffffffffffffffffffffffffff1673ffffffffffffffffffffffffffffffffffffffff168152602001908152602001600020600101546101b4919061089b565b6101be91906108f1565b9050600054811115610205576040517f08c379a00000000000000000000000000000000000000000000000000000000081526004016101fc90610796565b60405180910390fd5b80600160003373ffffffffffffffffffffffffffffffffffffffff1673ffffffffffffffffffffffffffffffffffffffff16815260200190815260200160002060010181905550604051806020016040528085815250600160003373ffffffffffffffffffffffffffffffffffffffff1673ffffffffffffffffffffffffffffffffffffffff168152602001908152602001600020600001866040516102ab919061075d565b908152602001604051809103902060008201518160000190805190602001906102d5929190610463565b509050505050505050565b60016020528060005260406000206000915090508060010154905081565b6000600160003373ffffffffffffffffffffffffffffffffffffffff1673ffffffffffffffffffffffffffffffffffffffff1681526020019081526020016000206001015460005461035091906108f1565b905090565b60606000600160003373ffffffffffffffffffffffffffffffffffffffff1673ffffffffffffffffffffffffffffffffffffffff168152602001908152602001600020600001836040516103a9919061075d565b90815260200160405180910390206040518060200160405290816000820180546103d2906109a3565b80601f01602080910402602001604051908101604052809291908181526020018280546103fe906109a3565b801561044b5780601f106104205761010080835404028352916020019161044b565b820191906000526020600020905b81548152906001019060200180831161042e57829003601f168201915b50505050508152505090508060000151915050919050565b82805461046f906109a3565b90600052602060002090601f01602090048101928261049157600085556104d8565b82601f106104aa57805160ff19168380011785556104d8565b828001600101855582156104d8579182015b828111156104d75782518255916020019190600101906104bc565b5b5090506104e591906104e9565b5090565b5b808211156105025760008160009055506001016104ea565b5090565b6000610519610514846107f6565b6107d1565b90508281526020810184848401111561053157600080fd5b61053c848285610961565b509392505050565b600061055761055284610827565b6107d1565b90508281526020810184848401111561056f57600080fd5b61057a848285610961565b509392505050565b60008135905061059181610acd565b92915050565b600082601f8301126105a857600080fd5b81356105b8848260208601610506565b91505092915050565b600082601f8301126105d257600080fd5b81356105e2848260208601610544565b91505092915050565b6000602082840312156105fd57600080fd5b600061060b84828501610582565b91505092915050565b60006020828403121561062657600080fd5b600082013567ffffffffffffffff81111561064057600080fd5b61064c848285016105c1565b91505092915050565b6000806040838503121561066857600080fd5b600083013567ffffffffffffffff81111561068257600080fd5b61068e858286016105c1565b925050602083013567ffffffffffffffff8111156106ab57600080fd5b6106b785828601610597565b9150509250929050565b60006106cc82610858565b6106d6818561086e565b93506106e6818560208601610970565b6106ef81610a93565b840191505092915050565b600061070582610863565b61070f8185610890565b935061071f818560208601610970565b80840191505092915050565b600061073860178361087f565b915061074382610aa4565b602082019050919050565b61075781610957565b82525050565b600061076982846106fa565b915081905092915050565b6000602082019050818103600083015261078e81846106c1565b905092915050565b600060208201905081810360008301526107af8161072b565b9050919050565b60006020820190506107cb600083018461074e565b92915050565b60006107db6107ec565b90506107e782826109d5565b919050565b6000604051905090565b600067ffffffffffffffff82111561081157610810610a64565b5b61081a82610a93565b9050602081019050919050565b600067ffffffffffffffff82111561084257610841610a64565b5b61084b82610a93565b9050602081019050919050565b600081519050919050565b600081519050919050565b600082825260208201905092915050565b600082825260208201905092915050565b600081905092915050565b60006108a682610957565b91506108b183610957565b9250827fffffffffffffffffffffffffffffffffffffffffffffffffffffffffffffffff038211156108e6576108e5610a06565b5b828201905092915050565b60006108fc82610957565b915061090783610957565b92508282101561091a57610919610a06565b5b828203905092915050565b600061093082610937565b9050919050565b600073ffffffffffffffffffffffffffffffffffffffff82169050919050565b6000819050919050565b82818337600083830152505050565b60005b8381101561098e578082015181840152602081019050610973565b8381111561099d576000848401525b50505050565b600060028204905060018216806109bb57607f821691505b602082108114156109cf576109ce610a35565b5b50919050565b6109de82610a93565b810181811067ffffffffffffffff821117156109fd576109fc610a64565b5b80604052505050565b7f4e487b7100000000000000000000000000000000000000000000000000000000600052601160045260246000fd5b7f4e487b7100000000000000000000000000000000000000000000000000000000600052602260045260246000fd5b7f4e487b7100000000000000000000000000000000000000000000000000000000600052604160045260246000fd5b6000601f19601f8301169050919050565b7f5370617a696f206d617373696d6f20737570657261746f000000000000000000600082015250565b610ad681610925565b8114610ae157600080fd5b5056fea264697066735822122052e727264a8ef997ac5a2b5f21489a2e78fb18afec9053bc502a42316668ebab64736f6c63430008040033",
  "linkReferences": {},
  "deployedLinkReferences": {}
}